:100000000A128A11E22F00308A000408840A82074B
:1000100000345034613472346B34653464340034E9
:100AB60030343034303430344130831203139F00E5
:100AC600C030831603139F00080000300A128A11F3
:100AD6008D250A128A1101300A128A118D25080005
:100AE600F000701C7A2D8312031308167D2D8312D5
:100AF60003130812F01C812D8816822D8812701D92
:100B0600862D0817872D0813F01D8B2D88170800D2
:100B160088130800F30083120313081173080A12DE
:100B26008A1173250A128A118312031388151A3043
:100B3600F200F830F100F10B9E2DF20B9E2D000015
:100B4600831203138811080075080A128A11E82512
:100B56000A128A11710883120313A8007008A700ED
:100B66002808803AFF0081307F02031DBC2D91309A
:100B76002702031CC32D0130F5000030F6000800E3
:100B8600F501F6010800FB00F901FA0179087B0777
:100B960084000A128A1103200A128A11003A0319E4
:100BA600080079087B0784000A128A1103200A12BA
:100BB6008A110A128A11FD260A128A110130F907D2
:100BC6000318FA0A0030FA07C92DF4000830740237
:100BD600031CF02DF001F1010800C530F200720887
:100BE600831203139F057408F20002300310F20DFE
:100BF600FF3E031DF92D0310720DF30073089F04C9
:100C06000D30F300FB30F200F20B072EF30B072E2C
:100C16000C2E831203131F151F190F2E1E08F10029
:100C2600831603131E08F0000800F7007703031D60
:100C36003D2E74087F3EF5007508FA007A08F50027
:100C460004300310F50CFF3E031D242E7508F60034
:100C56007608F8007A080F39F5007508F900780863
:100C66000A128A118D250A128A1179080A128A1126
:100C76008D25080002307706031D08007408BF3E64
:100C8600F5007508FA007A08F50004300310F50C33
:100C9600FF3E031D492E7508F6007608F8007A080F
:100CA6000F39F5007508F90078080A128A118D25A2
:100CB6000A128A1179080A128A118D2508008316EC
:100CC6000313880186010A128A116E270A128A11F5
:100CD6000A128A115F250A128A11FF308312031342
:100CE60086000A128A1168250A128A11F401F40A8A
:100CF60001300A128A1118260A128A1101300A12C4
:100D06008A11C6250A128A11083083120313A40019
:100D16002408F40001300A128A1118260A128A11D0
:100D26000A128A11AF260A128A117C08303E0A126C
:100D36008A11FD260A128A111A3083120313A6009D
:100D46005E30A5006D30A400A40BA72EA50BA72E20
:100D5600A60BA72EAE2E702EFC01FD010030F5006D
:100D6600F6000A128A11A7250A128A117508760456
:100D76000319C32E0130FC070318FD0A0030FD07D6
:100D86000130F5000030F6000A128A11A7250A1272
:100D96008A11750876040319D62E0130FC0703184C
:100DA600FD0A0030FD070230F5000030F6000A1299
:100DB6008A11A7250A128A11750876040319E92EE5
:100DC6000130FC070318FD0A0030FD070330F5006B
:100DD6000030F6000A128A11A7250A128A11750830
:100DE6007604031908000130FC070318FD0A0030D9
:100DF600FD070800F80078080F39F1007108F200C5
:100E06007808F039F1007108F3008312031308150E
:100E16007308F10004300310F10CFF3E031D0E2F82
:100E260071080A128A1173250A128A118312031392
:100E360088153330F4008230F5007508803AFF00DB
:100E460080307F02031D292F0130740203183D2FC5
:100E56000000FF30F4070318F50AFF30F5077508A0
:100E6600803AFF0080307F02031D3B2F0130740261
:100E7600031C2B2F83120313881172080A128A117E
:100E860073250A128A118312031388153330F6006C
:100E96008230F7007708803AFF0080307F02031D1A
:100EA600562F0130760203186A2F0000FF30F6072E
:100EB6000318F70AFF30F7077708803AFF008030FB
:100EC6007F02031D682F01307602031C582F831200
:100ED60003138811080000300A128A1173250A12BA
:100EE6008A111C30F6004130F7007708803AFF007F
:100EF60080307F02031D812F013076020318952F63
:100F06000000FF30F6070318F70AFF30F7077708E7
:100F1600803AFF0080307F02031D932F0130760256
:100F2600031C832F03300A128A118D250A128A1197
:100F36002130F5007630F400F40B9F2FF50B9F2F30
:100F4600000003300A128A118D250A128A114830D0
:100F5600F5006C30F400F40BAE2FF50BAE2F00004D
:100F660003300A128A118D250A128A1102300A12DA
:100F76008A118D250A128A1102300A128A118D25CC
:100F86000A128A1108300A128A118D250A128A114C
:100F960000300A128A118D250A128A110C300A12A3
:100FA6008A118D250A128A1100300A128A118D259E
:100FB6000A128A1106300A128A118D2508000A12B1
:100FC6008A115B250A128A11A0000A128A115C2571
:100FD6000A128A11A1000A128A115D250A128A11C3
:100FE600A2000A128A115E25A300A701A801FC012E
:0A0FF600FD0183010A128A11622E28
:02400E00723FFF
:00000001FF
